:020000040800F2
:10000000080D0020AD010008B5010008B701000887
:10001000B9010008BB010008BD0100080000000094
:10002000000000000000000000000000BF01000808
:10003000C101000800000000C3010008C50100085C
:10004000C7010008C7010008C7010008C701000870
:10005000C7010008C7010008C7010008C701000860
:10006000C7010008C7010008C7010008C701000850
:10007000C7010008C7010008C7010008C701000840
:10008000C7010008C7010008C7010008C701000830
:10009000C7010008C7010008C7010008C701000820
:1000A000C7010008C7010008C7010008C701000810
:1000B000C7010008C7010008C7010008D9050008EA
:1000C000C7010008C7010008C7010008C7010008F0
:1000D00000F002F800F05AF80AA090E8000C824400
:1000E0008344AAF10107DA4501D100F04FF8AFF2DD
:1000F000090EBAE80F0013F0010F18BFFB1A43F006
:1001000001031847A8430000C84300000A444FF009
:10011000000C10F8013B13F0070408BF10F8014B66
:100120001D1108BF10F8015B641E05D010F8016BAB
:10013000641E01F8016BF9D113F0080F1EBF10F80F
:10014000014BAD1C0C1B09D16D1E58BF01F801CB32
:10015000FAD505E014F8016B01F8016B6D1EF9D5B5
:100160009142D6D3704700000023002400250026CA
:10017000103A28BF78C1FBD8520728BF30C148BF0A
:100180000B6070471FB51FBD10B510BD00F0A9F87A
:100190001146FFF7F7FF01F03FFA00F0C7F803B48C
:1001A000FFF7F2FF03BC00F0CFF8000009488047DA
:1001B00009480047FEE7FEE7FEE7FEE7FEE7FEE749
:1001C000FEE7FEE7FEE7FEE704480549054A064B61
:1001D0007047000001060008D10000080807002051
:1001E000080D0020080900200809002053EA020C2D
:1001F00000F069802DE9F04B4FF00006002B1FBF87
:10020000B3FA83F503FA05F424FA05F65E4012BF4B
:100210001643B2FA82F502FA05F4C5F120051EBFB5
:1002200022FA05FC44EA0C04203556EA044C4FEA55
:10023000144418BF641C4FF000084FF000099042AE
:1002400071EB030C39D3002919BFB1FA81F701FA18
:1002500007F6B0FA80F700FA07F6C7F120071EBFCD
:1002600020FA07FC46EA0C062037B6FBF4FCA7EBA5
:100270000507103F07F01F0BCBF120062CFA06F6FE
:100280000CFA0BFB44BFB3460026202FA4BF5E46EA
:100290004FF0000B5BEA060C08BF4FF0010B19EBA7
:1002A0000B0948EB0608ABFB027C06FB02CC0BFB00
:1002B00003CCC01B71EB0C01C1E70B460246414663
:1002C0004846BDE8F08B13B5084318BF4FF0FF3028
:1002D0000146AFF30080BDE81C407047704770478F
:1002E0007047754600F02CF8AE4605006946534647
:1002F00020F00700854618B020B5FFF765FFBDE880
:1003000020404FF000064FF000074FF000084FF07C
:10031000000BAC46ACE8C009ACE8C009ACE8C009C9
:10032000ACE8C00921F007018D46704710B50446BE
:10033000AFF300802046BDE81040FFF730BF00005B
:10034000004870476801002001491820ABBEFEE755
:10035000260002007047000080B584B000F05AFF0C
:1003600040F2CC10C2F20000007801460391B8B10F
:10037000FFE7039813281DD0FFE703984C286AD0A5
:10038000FFE70398FF2840F0D480FFE700F0D4FA9D
:1003900040F25801C2F200014FF416700880E3E009
:1003A00000F0BEFA40F25801C2F200014FF416709C
:1003B0000880D9E040F2E831C2F200010120087162
:1003C00040F2C810C2F200000078002842D0FFE7D7
:1003D00040F25800C2F200000088B0F5967F20DDA0
:1003E000FFE700F017FF40F2E831C2F2000102918E
:1003F0000120087140F2C910C2F20000007840F2FA
:10040000CB11C2F20001097840F2CA12C2F2000216
:10041000127801F073F902980E218F2200F08EF904
:1004200002E000F07DFAFFE7012000F02FFF40F22C
:100430005800C2F20000018801390180008840B9EB
:10044000FFE740F25801C2F200014FF41670088035
:10045000FFE789E06EE040F2E831C2F200010420DB
:10046000087140F2C810C2F20000007800285FD086
:10047000FFE740F25800C2F200000088B0F5967F16
:1004800020DDFFE700F0C6FE40F2E831C2F20001D5
:1004900001910520087140F2C910C2F200000078F5
:1004A00040F2CB11C2F20001097840F2CA12C2F246
:1004B0000002127801F022F901980E218F2200F03B
:1004C0003DF91FE000F0A6FE40F2E831C2F2000163
:1004D00000910420087140F2C910C2F200000078B7
:1004E00040F2CB11C2F20001097840F2CA12C2F206
:1004F0000002127801F002F900980E218F2200F01C
:100500001DF9FFE7012000F0C1FE40F25800C2F2E1
:100510000000018801390180008840B9FFE740F2FE
:100520005801C2F200014FF416700880FFE71BE08B
:1005300000E0FFE740F2C910C2F20000007840F28C
:10054000CB11C2F20001097840F2CA12C2F20002D5
:10055000127801F0D3F840F2E830C2F200000E2128
:100560008F2200F0EBF8FFE704B080BD88B0079061
:1005700006910592079800F0070004900498C0F1D6
:100580000700052803D3FFE70420019004E0049846
:10059000C0F107000190FFE7019803900498043030
:1005A000062803D8FFE70020009003E004980338F2
:1005B0000090FFE70098029006980399012202FA42
:1005C00001F101390840029B984005999A40013A8F
:1005D0001140084308B0704780B54FF4802000F008
:1005E000CBFE28B1FFE74FF4802000F0BBFEFFE711
:1005F00040F2F830C2F2000003F06EFB80BD000054
:1006000041F20001C4F20201086840F001000860F4
:10061000FFE741F20000C4F2020000684008C00792
:1006200008B9FFE7F5E741F20401C4F202010868E6
:1006300020F003000860FFE741F20400C4F202006A
:1006400000688008800708B1FFE7F5E741F2000184
:10065000C4F2020108684FF6FF72CFF6F262104052
:10066000086041F20401C4F202010020086041F276
:100670002C01C4F2020141F61070086041F2300111
:10068000C4F202014FF48010086041F20801C4F284
:1006900002014FF41F0008604EF60851CEF200012F
:1006A0004FF00060086070471421C4F6000108682C
:1006B00040F010000860704780B582B001F090F8FB
:1006C000002000908DF8070000F030F8032001F0C2
:1006D00061F8FFF7E9FF00F029F8402001F05AF82F
:1006E000FFF7E2FF00F022F8C02001F053F8009875
:1006F0008DF80700FFE79DF807000D280ADCFFE7EB
:10070000002001F047F8FFE79DF8070001308DF861
:100710000700F0E7FFF7C8FF00F008F8802001F0BD
:1007200039F8FFF7C1FF02B080BD00001421C4F604
:100730000001086820F010000860704780B584B0A0
:1007400003908DF80B108DF80A20002001908DF891
:100750000900FFF7EBFF032001F01CF8FFF7A4FFEF
:10076000FFF7E4FF402001F015F8FFF79DFFFFF7CA
:10077000DDFFC02001F00EF801988DF80900FFE7B9
:100780009DF809009DF80B1088420DDAFFE70398E9
:100790009DF80910405C00F0FDFFFFE79DF809009F
:1007A00001308DF80900EBE7FFF77EFFFFF7BEFF92
:1007B0009DF80A0000F0EEFFFFF776FF04B080BD61
:1007C00081B08DF803009DF9030000280ED4FFE7E7
:1007D0009DF9031001F01F02012090404A094EF2DA
:1007E0000011CEF2000141F82200FFE701B070478E
:1007F0004EF60C50CEF200000068C0F302207047A5
:1008000082B08DF8070000919DF9070000280AD4F6
:10081000FFE7009800019DF907104EF20042CEF26A
:10082000000288540BE0009800019DF8071001F0C9
:100830000F014EF61452CEF200028854FFE702B0C8
:100840007047000083B00290029800F0070000900B
:100850004EF60C51CEF200010868019001984FF657
:10086000FF02104001900198009A40EA0220002205
:10087000C0F2FA52104301900198086003B070472B
:1008800081B0ADF802008DF80110BDF8020048B942
:10089000FFE746F60441C4F20001086820F00200B8
:1008A000086008E046F60441C4F20001086840F020
:1008B00002000860FFE79DF8012046F60441C4F2FB
:1008C0000001086862F30000086001B07047000092
:1008D00081B0ADF80200BDF8020046F60C41C4F24A
:1008E0000001086001B0704781B0ADF80200BDF8AA
:1008F000020046F61041C4F20001086001B07047E2
:1009000081B0ADF80200BDF8020046F61441C4F211
:100910000001086001B0704780B5FFF7CDFE80BDD3
:1009200080B500F077FC40F2E830C2F200000E2102
:100930008F22FFF703FF80BD80B582B000208DF8C5
:100940000700FFE79DF807000D280FDCFFE79DF883
:10095000072040F2E831C2F20001FF208854FFE78F
:100960009DF8070001308DF80700EBE740F2E83012
:10097000C2F200000E218F22FFF7E0FE02B080BD20
:1009800080B584B0039000208DF80B00039801908F
:100990000198812102F040FD0198012102F03CFD07
:1009A0009DF80B0004B080BD80B586B00590002195
:1009B0008DF813100598039003984068406A0290E0
:1009C000039803F00BF80190029890F80C010928A5
:1009D0000CD1FFE7059802998C31BDF8042001F095
:1009E000E1FE0299002081F80C01FFE79DF8130059
:1009F00006B080BD82B0019000208DF803009DF804
:100A0000030002B07047000083B002908DF8071019
:100A100000208DF806009DF807000146009101288E
:100A200008D0FFE70098022805D0FFE700980328C8
:100A300002D002E002E001E000E0FFE79DF80600DE
:100A400003B0704782B001908DF8031000208DF83C
:100A500002009DF8020002B07047000080B588B027
:100A6000079000208DF81B000798059005984068B6
:100A7000406A049005988121032201924023039348
:100A800002F0F4FC019A039B05980121029102F007
:100A9000EDFC0299039B0598049A02F025FD9DF850
:100AA0001B0008B080BD000080B586B005908DF8B1
:100AB000131000208DF812000598039003984068E9
:100AC000406A029003989DF8131002F087FF01908E
:100AD00005980299BDF8042001F064FE0398029A7B
:100AE000BDF80430012102F0FFFC9DF8120006B0B1
:100AF00080BD000080B58CB00B900A9100208DF86D
:100B000027000B98089008984068406A07900A9858
:100B1000007800F0600001460491002848D0FFE70B
:100B20000498202840F09E80FFE70A98407801381A
:100B3000014603910A2836D80399DFE801F02C1901
:100B40000C3434343434201306000A988078079922
:100B5000C1F880002BE0089807998031012202F04B
:100B600085FA24E00A98C0780799C1F884001EE04D
:100B7000089807998431012202F078FA17E0079962
:100B8000092081F80C01089807998C310A9AD288BB
:100B900002F03CFA0BE008980799CC310A9AD28807
:100BA00002F064FA03E0089802F08EFAFFE75DE0D5
:100BB0000A98407801460291062808D0FFE702987B
:100BC0000A2840D0FFE702980B2843D048E00A9853
:100BD000C078222815D1FFE70A98C0887F2803DB58
:100BE000FFE77E20019003E00A98C0880190FFE7AC
:100BF0000198ADF81A0040F2BC00C2F20000059066
:100C00001AE00A98C078212815D1FFE70A98C08811
:100C10000A2803DBFFE70920009003E00A98C08858
:100C20000090FFE70098ADF81A0040F26400C2F2AD
:100C300000000590FFE7FFE708980599BDF81A2026
:100C400002F014FA0DE0089807998831012202F0A9
:100C50000DFA06E00A9840880799C1F8880000E07C
:100C6000FFE703E0089802F02FFAFFE79DF827005E
:100C70000CB080BD82B0019000208DF803009DF87B
:100C8000030002B07047000081B08DF803009DF8AA
:100C9000032041F20401C4F20201086802F00F02CD
:100CA00020F0F00040EA0210086001B07047000038
:100CB00081B08DF803009DF8032041F20401C4F2D5
:100CC0000201086802F0070220F4E06040EA022016
:100CD000086001B07047000081B08DF803009DF8F6
:100CE000032041F20401C4F20201086802F0070285
:100CF00020F4605040EAC220086001B07047000054
:100D000082B08DF807008DF806109DF807000146A7
:100D10000091042844D80099DFE801F0030E1D2C4F
:100D200037009DF8062041F20001C4F20201086874
:100D300062F30000086034E09DF8062041F20001F3
:100D4000C4F20201086802F0010220F4803040EA97
:100D50000240086025E09DF8062041F20001C4F23F
:100D60000201086802F0010220F0807040EA02608F
:100D7000086016E09DF8062041F22001C4F202014D
:100D8000086862F3000008600BE09DF8062041F25D
:100D90002401C4F20201086862F30000086000E068
:100DA000FFE702B07047000082B0019000208DF88C
:100DB0000300BDF8060041F20001C4F202014058F0
:100DC000019901F01F01C840C00720B9FFE70020CA
:100DD0008DF8030003E001208DF80300FFE79DF884
:100DE000030002B07047000081B08DF803009DF849
:100DF000032041F23001C4F20201086802F001024E
:100E000020F0007040EA4260086001B070470000C6
:100E100080B582B08DF807000120FFF7E5FF9DF84F
:100E2000072041F25401C4F20201086802F00102F5
:100E300020F4007040EA4220086002B080BD00004B
:100E400082B001908DF803109DF8030001280FD1A6
:100E5000FFE7019800F01F02012101FA02F3010CE3
:100E600041F20002C4F202028858184388500EE092
:100E7000019800F01F02012101FA02F3010C41F276
:100E80000002C4F20202885898438850FFE702B07B
:100E90007047000083B08DF80B008DF80A10002019
:100EA00001908DF803009DF80B00B0B9FFE741F207
:100EB0000401C4F20201086820F48030086040F6A2
:100EC0000010C0F23D00019041F23001C4F2020175
:100ED000086840F00070086029E041F20401C4F2A3
:100EE0000201086840F4803008609DF80B0001287A
:100EF0000ED1FFE741F20020C0F27A00019041F2EA
:100F00000401C4F20201086820F4003008600DE01A
:100F100040F60010C0F23D00019041F20401C4F21D
:100F20000201086840F400300860FFE7FFE701981D
:100F300048F26121C0F23B0188420CD3FFE70198DF
:100F400044F63F31C0F24C01884204D8FFE700204C
:100F50008DF8030068E0019845F68101C0F24F0169
:100F600088420CD3FFE7019845F60F61C0F25F019C
:100F7000884204D8FFE701208DF8030053E0019870
:100F800043F29551C0F2770188420CD3FFE70198F4
:100F900041F60F31C0F27F01884204D8FFE70220FA
:100FA0008DF803003EE0019841F61131C0F27F0157
:100FB00088420CD3FFE701984BF61F41C0F2BE01F7
:100FC000884204D8FFE703208DF8030029E0019848
:100FD00046F62931C0F2EE0188420CD3FFE70198B2
:100FE0004DF22F71C0F23D11884204D8FFE7042072
:100FF0008DF8030014E001984DF23171C0F23D11FB
:1010000088420CD3FFE701984EF6D711C0F2DC11ED
:10101000884204D8FFE705208DF80300FFE7FFE7CB
:10102000FFE7FFE7FFE7FFE79DF80A0000F00F0288
:1010300041F20401C4F20201086820F4701040EA91
:10104000824008609DF80A0000F03002086820F035
:10105000C04040EA426008609DF8032041F22C0144
:10106000C4F20201086802F0070220F0E06040EAE2
:101070000260086003B0704741F20001C4F202014F
:10108000086840F001000860FFE741F20000C4F288
:10109000020000684008C00708B9FFE7F5E741F221
:1010A0000401C4F20201086820F003000860FFE7B1
:1010B00041F20400C4F2020000688008800708B111
:1010C000FFE7F5E741F20001C4F2020108684FF6BC
:1010D000FF72CFF6F2621040086041F20401C4F2E0
:1010E00002010020086041F22C01C4F2020141F625
:1010F0001070086041F23001C4F202014FF4801018
:10110000086041F20801C4F202014FF41F000860B8
:101110007047000081B08DF803009DF8032041F274
:101120000401C4F20201086862F30100086001B022
:101130007047000041F20400C4F202000068C0F3EE
:101140008100704781B08DF803009DF8030000F026
:10115000030241F20401C4F20201086820F44000D5
:1011600040EA825008609DF803200868920862F304
:10117000DB60086001B0704780B582B08DF8070071
:101180009DF80700012804D1FFE70120FFF740FE8A
:10119000FFE79DF8072041F25401C4F202010868FC
:1011A00002F0010220F4807040EA0220086002B0E0
:1011B00080BD000081B000208DF8030041F24401A1
:1011C000C4F20201086840F080400860086820F01E
:1011D0008040086041F20401C4F202010868C0F3D3
:1011E000C0608DF803009DF80320012020EA020270
:1011F000086820F0006040EAC26008609DF80320A3
:10120000086802F0010220F0006040EAC260086055
:1012100001B0704781B000208DF80300FFE79DF812
:1012200003000D280FDCFFE79DF8032040F2E831B2
:10123000C2F2000100208854FFE79DF8030001304E
:101240008DF80300EBE701B07047000080B5042083
:1012500000F002FE40F26410C2F2000000684DF699
:101260008361C4F21B31A0FB0110810C40F2E42029
:10127000C2F20000016000684FF47A71484340F206
:10128000E021C2F20001086080BD000083B0ADF82B
:101290000A0000200190FFE7BDF80A0000285FD097
:1012A000FFE7BDF80A00332812DBFFE740F2E02039
:1012B000C2F200000068322148434EF21401CEF21F
:1012C00000010860BDF80A003238ADF80A0010E0ED
:1012D000BDF80A0040F2E021C2F20001096848436B
:1012E0004EF21401CEF2000108600020ADF80A00B1
:1012F000FFE74EF21801CEF20001002008604EF226
:101300001001CEF20001086840F001000860FFE71C
:101310004EF21000CEF2000000680190FFE70020BE
:101320009DF80410C907009031B1FFE79DF8061041
:10133000012088430090FFE70098C0070028E7D10C
:10134000FFE74EF21001CEF20001086820F0010024
:1013500008604EF21801CEF20001002008609BE701
:1013600003B0704781B00090009840F21441C4F27D
:101370000101086001B0704783B0029000208DF831
:101380000700009040F21440C4F201000068029986
:1013900008400090009820B1FFE701208DF8070079
:1013A00003E000208DF80700FFE79DF8070003B079
:1013B0007047000080B582B044F27E40C0F6000065
:1013C00040F2E821C2F20001019102F0E1FF01992F
:1013D000024640F20070C2F200000280416002B09A
:1013E00080BD000040F20000C2F200007047000023
:1013F00040F25C00C2F200007047000080B582B08D
:1014000044F26740C0F6000040F2E821C2F2000159
:10141000019102F0BDFF0199024640F20070C2F254
:1014200000000280416002B080BD000040F2501018
:10143000C2F200007047000080B582B044F29240D2
:10144000C0F6000040F2E821C2F20001019102F072
:101450009FFF0199024640F20070C2F20000028034
:10146000416002B080BD00000020704780B582B0AE
:1014700044F25940C0F6000040F2E821C2F20001F7
:10148000019102F085FF0199024640F20070C2F21C
:1014900000000280416002B080BD00000020704763
:1014A00080B500F005F840F25810C2F2000080BD8F
:1014B00080B584B04FF2E870C1F6FF700068039009
:1014C0004FF2EC70C1F6FF70006802904FF2F070BE
:1014D000C1F6FF70006801900199039808440390D9
:1014E000039888B1FFE7039840F27401C2F200014B
:1014F00000910231082202F089FB00990298123112
:10150000042202F083FBFFE704B080BD81B00090AD
:1015100000994FF6FF7008600099002088710099CB
:1015200008710099487100990120C87101B0704795
:1015300083B0029001910020ADF80000019800688E
:10154000ADF80200FFE7BDF80200012862DBFFE70B
:10155000BDF80200C007002851D0FFE7BDF8000029
:101560004100032000FA01F3029A116899431160C7
:1015700001998979BDF80020520001FA02F3029A1C
:10158000116819431160BDF80020012101FA02F32E
:10159000029A51689943516001990979BDF8002078
:1015A00001FA02F3029A516819435160BDF8001024
:1015B000490000FA01F3029A9168994391600199F8
:1015C000C979BDF80020520001FA02F3029A91682D
:1015D00019439160BDF80010490000FA01F2029928
:1015E000C8689043C86001984079BDF80010490070
:1015F00000FA01F20299C8681043C860FFE7BDF81D
:1016000002004008ADF80200BDF800000130ADF85E
:10161000000098E703B0704780B584B000200290C6
:10162000039000F0B9FAFFF711FEFFF775F90320F8
:1016300000F0A6F801F09CF80C20C0F21400012183
:101640000191FFF7FDFB029800F022FC029A1F2097
:10165000114600F07BF80199029A40F23000C2F284
:1016600000006B46186040F2F830C2F2000040F211
:101670000803C2F2000302F089FAFFE7FEF76CFEEE
:1016800000F068FAFAE7000080B582B0844604985A
:101690008DF807C08DF806108DF805208DF8043000
:1016A0008DF803009DF8070040F2CC11C2F2000152
:1016B00008709DF8060040F2C911C2F200010870DE
:1016C0009DF8050040F2CB11C2F2000108709DF8B0
:1016D000040040F2CA11C2F2000108709DF8030034
:1016E00040F2C811C2F20001087040F26011C2F26B
:1016F000000141F28830088002B080BD81B08DF8D1
:1017000003008DF802108DF801209DF802000128D9
:101710000DDBFFE79DF8021044F24E40C0F60000DA
:10172000405C40F2E831C2F200010870FFE79DF82A
:10173000011044F24E40C0F60000405C40F2E83137
:10174000C2F20001887001B07047000080B584B01B
:101750008DF80F000291019200200090FFF748F8E9
:101760000299019AFEF702FF00909DF90F0000997F
:10177000FFF746F89DF90F00FFF722F804B080BD8F
:1017800080B582B08DF807009DF80700FFF75AF882
:1017900002B080BD80B582B08DF807009DF80710BB
:1017A00043F20000C4F2010000F0B6F8FFE743F294
:1017B0000000C4F20100022100F0B8F808B9FFE708
:1017C000F5E7FFE743F20000C4F20100802100F0DA
:1017D000ADF8012801D1FFE7F4E702B080BD0000B9
:1017E00080B586B000F056F80C20C0F21800012138
:1017F0000391FFF725FB04A8019000F023F801995D
:10180000039803228DF810208DF8110006228DF820
:1018100012208DF8130000228DF814208DF8150089
:101820008DF816008DF8170043F20000C4F2010095
:10183000029000F093F80298039900F019F806B0AE
:1018400080BD000081B000900099002008700099D0
:101850004870009988700099C870009908710099C3
:1018600048710099887100990120C87101B07047D2
:1018700082B001908DF803109DF80320019908684B
:1018800002F0010220F0400040EA8210086002B03D
:101890007047000080B588B01120C0F2140001210B
:1018A0000391FFF7CDFA06A80590FFF72FFE039AE4
:1018B0000599002001908DF81C008DF81F208DF8EF
:1018C0001D00022002908DF81E00202006904FF08F
:1018D00090400490FFF72CFE019B029A0498059912
:1018E0008DF81D308DF81E2080220692FFF720FE15
:1018F000039A049805998DF81D208DF81E2010225A
:101900000692FFF715FE1421C4F60001086840F0A6
:101910001000086008B080BD82B00190ADF80210E0
:10192000BDF802000199C86002B0704783B0029010
:10193000019100208DF80300029880680199084207
:1019400004D1FFE700208DF8030003E001208DF8AB
:101950000300FFE79DF8030003B0704782B00190D9
:1019600000910199C86920F40060C861009800786E
:1019700080B9FFE70199086820F4004008600199E8
:10198000086820F4804008600199086820F48060AD
:10199000086041E000980078012810D1FFE7019924
:1019A000086820F4004008600199086820F480402D
:1019B00008600199086840F4806008602BE0009896
:1019C0000078022810D1FFE70199086840F4004030
:1019D00008600199086820F480400860019908684F
:1019E00020F48060086015E000980078032810D18A
:1019F000FFE70199086840F4004008600199086811
:101A000040F4804008600199086820F48060086014
:101A1000FFE7FFE7FFE7FFE70098C2790199086851
:101A200002F0010220F4007040EA422008600098B1
:101A3000407801280BD1FFE70098C079012806D132
:101A4000FFE70199086840F48070086005E001999B
:101A5000086820F480700860FFE7009842780199D8
:101A6000086802F0010220F0040040EA82000860E9
:101A700000988078072816DCFFE70199486820F471
:101A8000007048600199486820F4807048600098B0
:101A900082780199086802F0070220F0380040EAD5
:101AA000C20008602BE0009880780A2810D1FFE778
:101AB0000199486840F4007048600199486820F432
:101AC000807048600199086820F03800086015E0CF
:101AD0000199486820F4007048600199486840F412
:101AE000807048600098807800F0070201990868CB
:101AF00020F0380040EAC2000860FFE7FFE70098E6
:101B0000C2780199086802F0010220F0800040EAE2
:101B1000C2100860009802790199086802F0010279
:101B200020F4006040EAC2200860009842790199E0
:101B3000086802F0010220F0020040EA420008605A
:101B4000009882790199086862F30000086002B089
:101B50007047000080B582B040F26011C2F200010F
:101B600001910888013808800120FFF78FFB019858
:101B7000008870B9FFE740F26011C2F2000141F243
:101B80008830088040F2CC11C2F2000100200870B9
:101B9000FFE702B080BD000080B582B0FFF76CFAAD
:101BA00042F20001C4F202014FF4A9700860002063
:101BB0000121FFF7A5F8FFE70120FFF7F5F801285D
:101BC00001D0FFE7F8E700201721FFF763F90220B3
:101BD0000121FFF795F8FFE71920FFF7E5F8012845
:101BE00001D0FFE7F8E700200190FFF74DF80198DA
:101BF000FFF772F80198FFF75BF80220FFF78AFA07
:101C0000FFE7FFF797FA022801D0FFE7F9E7032083
:101C1000FFF798FA0020FFF7AFFA00F003F802B0E0
:101C200080BD000080B58CB0002000900B900A9021
:101C30000990089007900690059004900390FFF794
:101C400079FA8DF80B009DF80B000146019140B127
:101C5000FFE7019801282BD0FFE70198022831D037
:101C6000D6E041F25400C4F202000068400AC00706
:101C700098B1FFE741F23000C4F202000068400E64
:101C8000C00750B1FFE740F26411C2F2000146F60E
:101C90000040C0F2DC20086009E040F26411C2F2AA
:101CA000000141F20020C0F27A000860FFE7B9E0CD
:101CB00040F26411C2F2000141F20020C0F27A0049
:101CC0000860AFE041F20400C4F202000068C0F313
:101CD0000040099041F22C00C4F20200016800208B
:101CE000B0EBD17F50D1FFE741F20400C4F2020013
:101CF0000168C1F383410B910068C0F341700A9001
:101D00000A9820B9FFE70B980F2807D1FFE70A9937
:101D10000B9800EB011001300B9003E00B980230A0
:101D20000B90FFE7099860B9FFE70B9840F60011A8
:101D3000C0F23D01484340F26411C2F20001086064
:101D400021E041F20400C4F202000068400CC00728
:101D500060B1FFE70B9840F60011C0F23D01484327
:101D600040F26411C2F2000108600BE00B9841F2EE
:101D70000021C0F27A01484340F26411C2F200012E
:101D80000860FFE7FFE742E041F22C00C4F20200E6
:101D90000168C1F3031105910168C1F308210491A1
:101DA000006800F007000390099830B9FFE740F69B
:101DB0000010C0F23D00069015E041F20400C4F2AC
:101DC00002000068400CC00730B1FFE740F6001089
:101DD000C0F23D00069005E041F20020C0F27A001A
:101DE0000690FFE7FFE706980499A0FB0101059A1A
:101DF000DDF80CC0012303FA0CF35A430023FEF76D
:101E0000F5F940F26411C2F200010860FFE709E051
:101E100040F26411C2F2000141F20020C0F27A00E7
:101E20000860FFE741F20400C4F202000068C0F35A
:101E300003100890089944F29B40C0F60000405CF3
:101E4000079040F26411C2F200010868079AD0407E
:101E500008600CB080BD000081B08DF803009DF8D3
:101E60000300042809D1FFE74EF21001CEF2000171
:101E7000086840F00400086008E04EF21001CEF25D
:101E80000001086820F004000860FFE701B0704717
:101E900080B584B08DF80F009DF80F0001281BD18C
:101EA000FFE701200290FFF767F902991B20C0F2BB
:101EB0001C00FEF7C5FF41F62C70FEF709FD4FF43C
:101EC000FA50FEF711FD41F65470FEF719FD029924
:101ED0000220FEF7D5FC2CE0FFF76CF940F264100D
:101EE000C2F200000068019046F60041C0F2DC2119
:101EF000884210D0FFE701984AF20021C0F24A411F
:101F000088420CD0FFE701984DF60001C0F2B851AD
:101F1000884208D00BE00120FFF714F908E0002008
:101F2000FFF710F904E00320FFF70CF900E0FFE7EA
:101F3000FFE704B080BD000081B000900099D1F8A7
:101F4000040820F00200C1F8040801B07047000046
:101F500082B001908DF803109DF80300019981F87B
:101F6000F4029DF80300019981F8FD020199002017
:101F700081F8FF02019981F8010301994020A1F83D
:101F8000F8020199082081F8F70201994FF4A07036
:101F9000A1F8FA029DF80300012805D1FFE7019995
:101FA000022081F8FC02FFE70199012081F801037A
:101FB000002002B07047000081B000900099D1F875
:101FC000040840F00200C1F8040801B070470000A6
:101FD00081B000900099D1F8000940F2FF7290435F
:101FE000C1F800090099D1F8040820F48070C1F804
:101FF000040801B07047000082B00190019800F51C
:102000003060009000990020086100990869012261
:1020100062F3DC40086100990869182262F312003B
:1020200008610099086940F0C040086102B070473B
:1020300082B0019000910098807810BBFFE7019872
:102040000099097800EB4111D1F8000920F4001043
:10205000C1F800090098C078032805D0FFE7009870
:10206000C07802280CD1FFE701980099097800EBAD
:102070004111D1F8000940F08050C1F80009FFE794
:1020800021E001980099097800EB4111D1F8000B8B
:1020900020F40010C1F8000B0098C078032805D088
:1020A000FFE70098C07802280CD1FFE7019800995B
:1020B000097800EB4111D1F8000B40F08050C1F8D5
:1020C000000BFFE7FFE702B07047000082B001900D
:1020D000009100988078B8B9FFE700980178012056
:1020E00000FA01F20199D1F81C089043C1F81C08CC
:1020F00001980099097800EB4111D1F8000920F40A
:102100000040C1F8000917E000980178012000FAAA
:1021100001F20199D1F81C0820EA0240C1F81C081C
:1021200001980099097800EB4111D1F8000B20F4D7
:102130000040C1F8000BFFE702B0704782B0019089
:1021400000208DF803008DF80300FFE79DF80300E1
:1021500007282DDCFFE79DF8030001992C2210FBD6
:10216000021108739DF80300019910FB02114873D6
:1021700001999DF8030010FB021100208873019B58
:102180009DF8031011FB02314861019B9DF803107B
:1021900011FB02310862019B9DF8031011FB023113
:1021A0004862FFE79DF8030001308DF80300CDE79A
:1021B00000208DF80300FFE79DF80300072834DCBA
:1021C000FFE79DF8030001992C2210FB021181F812
:1021D0006C019DF80300019910FB021181F86D015B
:1021E00001999DF8030010FB0211012081F86E0196
:1021F00001999DF8030010FB02110020C1F8740141
:10220000019B9DF8031011FB0231C1F88001019B75
:102210009DF8031011FB0231C1F88401FFE79DF81E
:10222000030001308DF80300C6E702B070470000DC
:1022300083B002900191009200980299019A01EBFB
:102240004211C1F8080903B07047000085B004903E
:1022500003910498D0F8100801900498D0F834083D
:10226000009000980399C84000F00101019840EAED
:10227000C11001900498039900EB4110D0F80809AF
:10228000019908400290029805B0704783B002900F
:10229000019100208DF803000198007840BBFFE712
:1022A00001988068402804D1FFE700208DF80300E2
:1022B0001DE001988068202804D1FFE701208DF8F7
:1022C000030013E001988068102804D1FFE7022082
:1022D0008DF8030009E001988068082804D1FFE721
:1022E00003208DF80300FFE7FFE7FFE7FFE7FFE7C5
:1022F00001988078002862D1FFE7019801780120D9
:1023000000FA01F20299D1F81C081043C1F81C0828
:102310000198007880B9FFE79DF8032002980199A1
:10232000097800EB4111D1F8000940F2FF7398439E
:102330001044C1F800090CE001998A6802980978F4
:1023400000EB4111D1F8000962F30A00C1F800095D
:10235000FFE701980178C278029800EB4111D1F8AB
:10236000000902F0030220F4402040EA8240C1F854
:10237000000901980278029800EB4211D1F8000997
:1023800002F00F0220F0707040EA8250C1F800099C
:1023900002980199097800EB4111D1F8000940F049
:1023A0008050C1F8000902980199097800EB4111A9
:1023B000D1F8000940F40040C1F8000953E0019849
:1023C0000178012000FA01F20299D1F81C0840EAD4
:1023D0000240C1F81C080198007880B9FFE79DF819
:1023E000032002980199097800EB4111D1F8000B04
:1023F00040F2FF7398431044C1F8000B0CE00199C0
:102400008A680298097800EB4111D1F8000B62F359
:102410000A00C1F8000BFFE701980178C278029822
:1024200000EB4111D1F8000B02F0030220F4402030
:1024300040EA8240C1F8000B02980199097800EB4C
:102440004111D1F8000B40F08050C1F8000B029808
:102450000199097800EB4111D1F8000B40F40040DC
:10246000C1F8000BFFE703B07047000083B0029093
:102470000191009200980299019A01EB4211C1F872
:10248000080B03B07047000083B0029001910298DE
:10249000019900EB4110D0F8080B009000980299C8
:1024A000D1F81418084003B07047000082B00190C2
:1024B00000910098807820BBFFE701980099097887
:1024C00000EB4110D0F800190020B0EBD17F0CD107
:1024D000FFE701980099097800EB4111D1F8000954
:1024E00020F08040C1F80009FFE7019800990978C1
:1024F00000EB4111D1F8000940F40010C1F80009C7
:1025000023E001980099097800EB4110D0F8001BF6
:102510000020B0EBD17F0CD1FFE70198009909783A
:1025200000EB4111D1F8000B20F08040C1F8000B06
:10253000FFE701980099097800EB4111D1F8000BF1
:1025400040F40010C1F8000BFFE702B07047000034
:1025500082B00190002000900199086940F01000BD
:102560000861FFE7019800690009C00760B1FFE753
:102570000098411C009140F64151C0F2030188428D
:1025800001D3FFE700E0EDE702B0704783B00290AF
:10259000019100200090019A0299086902F01F023F
:1025A00020F4F86040EA821008610299086940F05E
:1025B00020000861FFE7029800694009C00760B188
:1025C000FFE70098411C009140F64151C0F2030121
:1025D000884201D3FFE700E0EDE703B07047000059
:1025E00082B001900198D0F81808009000980199E5
:1025F000D1F81C18084080B202B0704782B0019038
:102600000198D0F81808009000980199D1F81C188A
:102610000840000C02B0704782B001900091009811
:102620000199486102B0704782B0019001984069F9
:102630000090009801998969084002B07047000035
:1026400080B582B00190019800F024F80199886B60
:1026500040F48030886302B080BD000082B00190F9
:10266000ADF802108DF801209DF80100012807D176
:10267000FFE7BDF80220019988691043886106E0F0
:10268000BDF802200199886990438861FFE702B094
:102690007047000082B0019000200090FFE7019891
:1026A00001690020B0EBD17F0CD1FFE70098411CFD
:1026B000009140F64151C0F20301884201D3FFE787
:1026C00000E0ECE7002000900199086940F001006B
:1026D0000861FFE701980069C00760B1FFE7009853
:1026E000411C009140F64151C0F20301884201D3E0
:1026F000FFE700E0EEE7012002B0704781B08DF8FF
:1027000003004FF0A04001B07047000082B001907C
:102710000091009858B9FFE70199C86820F000506F
:10272000C8600199C86840F08040C860FFE7009821
:1027300001280BD1FFE70199C86820F08040C860EC
:102740000199C86840F00050C860FFE7009802286F
:102750000BD1FFE70199C86820F08040C86001995B
:10276000C86820F00050C860FFE702B07047000062
:1027700080B584B01120C0F2140001210191FEF750
:102780005FFB02A8FEF7C2FE01988DF80F00002043
:102790008DF80C0002218DF80E108DF80D0004B09C
:1027A00080BD000080B588B007900691ADF8162076
:1027B0000798039003984068406A029000200490B4
:1027C000FFE70498BDF8161088420CD2FFE7069880
:1027D000049A805C0299114481F84000FFE7049854
:1027E00001300490EDE70398029901F14002BDF831
:1027F0001630812100F004FF06980078102812D1CD
:10280000FFE7DDF808C09CF801009CF802109CF876
:1028100003209CF804309CF805C0EE46CEF800C0BA
:10282000FEF732FFFFE708B080BD000081B00090E6
:102830000099886820F00100886001B070470000AE
:1028400081B000900099886840F00100886001B074
:102850007047000081B000900099D1F8000E20F080
:102860000100C1F8000E01B07047000086B005906D
:102870000491ADF80E20ADF80C30BDF80C0003301B
:10288000800801900498009000200290FFE70298D1
:10289000019988420ED2FFE705984FF480514058C5
:1028A00000990860009804300090FFE7029801301A
:1028B0000290ECE706B0704782B001908DF80310EB
:1028C0009DF803200199D1F8000802F07F0220F45E
:1028D000FE6040EA0210C1F8000802B07047000034
:1028E00082B00190ADF80210BDF802000199486273
:1028F00002B0704784B003908DF80B10ADF808203B
:1029000000208DF8070000900398406A00909DF821
:102910000B0040B9FFE70098BDF8081040EA0140FD
:102920000399886230E00398816A009800EB1140B7
:10293000009000208DF80700FFE79DF807009DF844
:102940000B100139884212DAFFE703989DF807104F
:1029500000EB8100D0F80411009800EB11400090CA
:10296000FFE79DF8070001308DF80700E5E70098C4
:10297000BDF8081040EA014003999DF80B2001EBD7
:102980008201C1F80001FFE704B0704781B00090F8
:102990000099D1F8000E40F00100C1F8000E01B01E
:1029A0007047000081B000900098D0F8080800F04F
:1029B000010001B07047000080B588B00790069113
:1029C000079800680590079A06982C2100FB0120C3
:1029D0000C30049004998869C969401A039000205A
:1029E0000290039804998968884204D9FFE7049803
:1029F00080680390FFE70398033080080290FFE7A8
:102A00000598069900EB4110D0F8180981B2029A96
:102A10000020914201900FD9FFE704988269C169B3
:102A200000209142019007D2FFE7049880690028B6
:102A300018BF01200190FFE70198C00738B3FFE7F6
:102A400004998869C969401A0390039804998968B0
:102A5000884204D9FFE7049880680390FFE7039851
:102A6000033080080290059804994969BDF8182040
:102A7000BDF80C3000F01CF8039A04994869104422
:102A80004861039A0499C8691044C861B8E703987B
:102A900058B9FFE70699012000FA01F20599D1F82B
:102AA00034089043C1F83408FFE708B080BD000047
:102AB00086B005900491ADF80E20ADF80C30BDF84D
:102AC0000C000330800801900498009000200290D0
:102AD000FFE702980199884212D2FFE70098006848
:102AE0000599BDF80E2001EB02314FF48052885059
:102AF000009804300090FFE7029801300290E8E768
:102B000006B0704780B584B0039000208DF80B00AC
:102B1000039800F533700190039890F8E4020238AE
:102B200001281BD8FFE701984088012815D1FFE74D
:102B30000399002081F8E7020399D1F8EC0220F014
:102B40000200C1F8EC02039841688A6800F533710D
:102B50009047039800F0A8FAFFE703E0039800F01D
:102B6000B3FAFFE79DF80B0004B080BD80B584B0D8
:102B700003908DF80B100398006800909DF80B00EF
:102B8000000600280BD5FFE7039A9DF80B0000F024
:102B90007F002C2110FB01200C3001900BE0039AE8
:102BA0009DF80B0000F07F002C2110FB012000F5A8
:102BB000B6700190FFE700980199FFF739FA019983
:102BC0000020487304B080BD80B582B001900198A8
:102BD0000068FFF7B1F902B080BD000080B588B091
:102BE00007908DF81B10079A9DF81B0000F07F00DE
:102BF0002C2110FB01200C3005909DF81B000028B3
:102C000067D1FFE7079890F8E002022860D1FFE75C
:102C100005988168406A88421FD9FFE705998A684C
:102C2000486A801A4862079803900598816842694B
:102C30000492406A884204D2FFE70598406A0290F5
:102C400003E0059880680290FFE7049A03980299D0
:102C50008BB2002100F0D4FC39E005988168006A4D
:102C600088421FD1FFE705988168806A884219D39E
:102C7000FFE70598806A0799B1F8E212884211D2FD
:102C8000FFE70598002301930362079819461A4647
:102C900000F0B6FC019B07989DF81B101A4600F047
:102CA00023FC13E007984068C06858B1FFE7079815
:102CB00090F8E402032805D1FFE707984168C96846
:102CC0008847FFE7079800F0C1F9FFE7FFE7FFE754
:102CD00012E007984068406968B1FFE7079890F8EC
:102CE000E402032807D1FFE7079841684A699DF885
:102CF0001B109047FFE7FFE708B080BD80B58CB0A0
:102D000084460E98CDF82CC00A91099208938DF84C
:102D10001F000A980B9908600A980690069800F51B
:102D2000006005900B99012081F8E4020B990020C6
:102D3000019081F8E60209980B99486008980B9970
:102D400088600B9800F022FA0B98FFF7F7F90698C5
:102D5000FFF76CFD0698FFF773FC01990698FFF7E3
:102D6000D5FC0B980068FFF775FD0599086820F4FD
:102D7000C05008600599086840F003000860069894
:102D80001021FFF703FC0698FFF7E2FB0198059A74
:102D90004FF0FF3191610599C86105990861059966
:102DA00048610290FFE7029807280CD8FFE70698D1
:102DB000029900EB81010020C1F80401FFE70298AD
:102DC00001300290EFE70B9800F0E2FC0020029047
:102DD000FFE7029807282BD8FFE70698029900EB37
:102DE000411000F510600490049801680020B0EBD9
:102DF000D17F0ED0FFE7049900200860049908688D
:102E000040F0804008600499086840F00060086065
:102E100003E0049900200860FFE70499002008619E
:102E20000499FF208860FFE7029801300290D0E704
:102E300000200290FFE7029807282BD8FFE70698AA
:102E4000029900EB411000F530600390039801688F
:102E50000020B0EBD17F0ED0FFE70399002008607F
:102E60000399086840F0804008600399086840F0C2
:102E70000060086003E0039900200860FFE7039901
:102E8000002008610399FF208860FFE70298013065
:102E90000290D0E70599086940F4807008610699AE
:102EA00000200090886106996FF080404861069983
:102EB00043F61C00C8F23C0088610B98FFF784FEC3
:102EC0000698FFF7BDFC00980CB080BD80B588B0B7
:102ED00007908DF81B10079A9DF81B0000F07F00EB
:102EE0002C2110FB012000F5B67005909DF81B0009
:102EF00000283FD1FFE7079890F8E002032838D177
:102F0000FFE705988168406A884223D9FFE7059961
:102F10008A68486A801A4862079802909DF81B00E8
:102F200003900598816842690492406A884204D2FD
:102F3000FFE70598406A019003E0059880680190DA
:102F4000FFE7049A02980399019BC9B29BB200F073
:102F5000CBFA0DE007984068006928B1FFE70798B1
:102F6000416809698847FFE7079800F09DF8FFE787
:102F7000FFE712E007984068806968B1FFE70798AB
:102F800090F8E402032807D1FFE7079841688A69AF
:102F90009DF81B109047FFE7FFE708B080BD0000D9
:102FA00080B584B003908DF80B10039901F5337050
:102FB00001F5357101F094F90399012081F8E002DF
:102FC0000399B1F8D202A1F8E202039890F8CC027A
:102FD00000F01F000146019140B1FFE70198012870
:102FE00008D0FFE70198022808D00BE0039800F012
:102FF00079F808E0039800F047FE04E0039800F039
:10300000CFF800E0FFE704B080BD000080B584B0D9
:1030100003900291ADF80620039800F5B670009079
:10302000BDF8060000998862BDF806000099486264
:103030000399032081F8E0020398029ABDF8063054
:10304000002100F051FA04B080BD000080B582B0CC
:1030500001900199052081F8E002019800231946AA
:103060001A4600F041FA02B080BD000080B584B07D
:1030700003900291ADF8062003980C300090BDF843
:10308000060000998862BDF806000099486203991D
:10309000022081F8E0020398029ABDF80630002170
:1030A00000F0AEFA04B080BD80B582B00190019905
:1030B000042081F8E0020198002319461A4600F026
:1030C0009FFA02B080BD000080B582B001900198E7
:1030D000002101F0D7F80198802101F0D3F802B067
:1030E00080BD000080B586B0049000208DF80F00F0
:1030F000049800F5337002900298007810F0600F89
:103100000BD0FFE7049841688A6800F53371904757
:103110009DF80F008DF8170033E0049890F8CD0269
:1031200001460191092823D80199DFE801F005093A
:10313000210D21111521191D049800F063FC1BE0DD
:103140000498FFF7DFFC17E0049801F079F813E02A
:10315000049800F09FFF0FE0049800F08FFB0BE055
:10316000049800F051FB07E0049800F0D5FF03E05D
:103170000498FFF7A9FFFFE79DF80F008DF81700EF
:10318000FFE79DF8170006B080BD000080B582B053
:10319000019001980068FEF70FFF02B080BD0000AB
:1031A00080B58AB0099000208DF82300099800F5B9
:1031B00033700790079880888DF81B000798007877
:1031C00000F06000202807D1FFE7099841688A686D
:1031D00000F533719047FFE7079840780146049166
:1031E00048B1FFE70498012853D0FFE7049803286B
:1031F00000F08A80C7E0099890F8E4020146039144
:10320000022804D0FFE7039803280CD03CE09DF887
:103210001B00400630B1FFE709989DF81B1001F034
:1032200031F8FFE734E09DF81B00000600280BD5BD
:10323000FFE7099A9DF81B0000F07F002C2110FB8E
:1032400001200C3005900BE0099A9DF81B0000F05E
:103250007F002C2110FB012000F5B6700590FFE7E0
:103260000598407B012804D1FFE7059901200861FA
:1032700003E0059900200861FFE7099805991031DE
:103280000222FFF7F3FE03E00998FFF71DFFFFE7B7
:103290007DE0099890F8E40201460291022804D0EA
:1032A000FFE70298032810D029E09DF81B0058B1D1
:1032B000FFE79DF81B00802806D0FFE709989DF8DE
:1032C0001B1000F0DFFFFFE71DE007984088A8B95A
:1032D000FFE79DF81B00400660B1FFE709989DF8E5
:1032E0001B10FFF743FC099841688A6800F53371A9
:1032F0009047FFE70998FFF7D7FEFFE703E009983B
:10330000FFF7E2FEFFE742E0099890F8E402014689
:103310000191022804D0FFE70198032810D02DE086
:103320009DF81B0058B1FFE79DF81B00802806D0D0
:10333000FFE709989DF81B1000F0A4FFFFE721E0CC
:103340000798408880B9FFE79DF81B0058B1FFE758
:103350009DF81B00802806D0FFE709989DF81B10F8
:1033600000F090FFFFE7FFE7099841688A6800F5E1
:10337000337190470998FFF797FE03E00998FFF72C
:10338000A3FEFFE703E00998FFF79EFEFFE79DF825
:1033900023000AB080BD000080B582B00190019882
:1033A0000068FFF7FFFA012805D1FFE701980068E0
:1033B000FFF7ECFAFFE702B080BD000080B584B0F3
:1033C00003900398006802900298FEF701FE0299AC
:1033D000C868052262F38D20C8600398002200921D
:1033E00040230193114600F041F8009A019B039895
:1033F000802100F03BF80399012081F8E402039852
:103400004068406828B1FFE70398416849688847E9
:10341000FFE704B080BD000080B584B003908DF854
:103420000B109DF80B00000600280BD5FFE7039A50
:103430009DF80B0000F07F002C2110FB01200C30C8
:1034400001900BE0039A9DF80B0000F07F002C2107
:1034500010FB012000F5B6700190FFE703980068AB
:103460000199FEF733FE04B080BD000080B584B042
:1034700003908DF80B108DF80A20ADF808300398F2
:10348000006801909DF80B00000600280FD4FFE7AC
:10349000039A9DF80B0000F07F002C2110FB012007
:1034A00000F5B67000900099012088700DE0039A35
:1034B0009DF80B0000F07F002C2110FB01200C3048
:1034C0000090009900208870FFE7BDF8080000997F
:1034D00088609DF80A000099C87001980099FEF76D
:1034E000D5FE04B080BD000089B008908DF81F1093
:1034F0000692ADF81630089800680490089A9DF876
:103500001F0000F07F002C2110FB012000F5B67099
:10351000039004980399097800EB411000F530609E
:103520000290049800F500600190069803994861A4
:10353000BDF816000399886103990020C8619DF8C1
:103540001F00400620B9FFE7039988688861FFE7FC
:103550000398806928B1FFE79DF81F00400670B905
:10356000FFE7039882680299086962F31200086114
:1035700002990869012262F3DC4008611CE00398AB
:103580008168806908440138B0FBF1F0009003982D
:103590008068009900FB01F20299086962F3120049
:1035A0000861009A029908696FF39F226FF3DC406B
:1035B00040EAC2400861FFE70398C078012813D1B0
:1035C000FFE701988068000AC00730B9FFE7029959
:1035D000086840F00050086005E00299086840F073
:1035E00080500860FFE7FFE70299086840F08060BC
:1035F00008600299086840F00040086009B0704710
:1036000080B58AB009908DF823100792ADF81A3072
:10361000099800680590099A9DF8230000F07F0042
:103620002C2110FB01200C30049005980499097896
:1036300000EB411000F510600390059800F5006064
:103640000290079804994861BDF81A0004998861AE
:1036500004990020C8610498806960B9FFE7039964
:103660000869012262F3DC400861039908696FF37D
:103670001200086146E09DF823004006D8B9FFE734
:10368000049881688069884204D9FFE704998868B2
:103690008861FFE7049882690399086962F3120060
:1036A000086103990869012262F3DC40086104990A
:1036B0008869086225E004988168806908440138B7
:1036C000B0FBF1F00190049882690399086962F3F4
:1036D00012000861019A039908696FF39F226FF342
:1036E000DC4040EAC24008610498C078012807D154
:1036F000FFE703990869012262F35E700861FFE742
:10370000FFE7FFE70498C07801280FD0FFE704988F
:10371000806950B1FFE704980178012000FA01F2B6
:103720000299486B10434863FFE7FFE70498C078AD
:10373000012813D1FFE702988068000AC00730B95A
:10374000FFE70399086840F00050086005E003991E
:10375000086840F080500860FFE7FFE703990868B9
:1037600040F0806008600399086840F000400860FD
:103770000498C078012808D1FFE70598049B59698F
:103780001A781B8BFFF794F9FFE70AB080BD0000A1
:1037900080B584B003900398006802900298B0F15D
:1037A000A04F2ED1FFE702988021FFF799F80298E9
:1037B00000211822FFF79EF802980121142201929D
:1037C000FFF798F8019A02980221FFF793F8019AFF
:1037D00002980321FFF78EF8019A02980421FFF75F
:1037E00089F8019A02980521FFF784F8019A029856
:1037F0000621FFF77FF8019A02980721FFF77AF870
:10380000FFE704B080BD000080B584B003900020C5
:103810008DF80B00039800F5337001900198C08873
:10382000012804D0FFE70398FFF74EFC22E003983D
:1038300090F8E40201460091022804D0FFE70098C6
:1038400003280BD011E00399002081F8E8020398C7
:1038500000F53A710122FFF709FC0AE0039800F233
:10386000E9210122FFF702FC03E00398FFF72CFC9B
:10387000FFE7FFE79DF80B0004B080BD80B588B07E
:10388000069000208DF81700ADF8140004900698FB
:1038900090F8CF028DF80F009DF80F000138014617
:1038A000029106285FD80299DFE801F0040A105D52
:1038B0005D515500069880680068804704905AE082
:1038C0000698806880688047049054E0069890F8D5
:1038D000CE028DF80E009DF80E00014601910528DC
:1038E00029D80199DFE801F003090F151B2106987B
:1038F000806800698047049028E0069880684069E5
:103900008047049022E00698806880698047049090
:103910001CE006988068C0698047049016E006980D
:103920008068406A8047049010E006988068006ACA
:10393000804704900AE0069841688A6800F5337170
:1039400090479DF817008DF81F0042E013E006989D
:10395000FFF7BAFB0FE00698FFF7B6FB9DF81700DC
:103960008DF81F0035E00698FFF7AEFB9DF81700B5
:103970008DF81F002DE0049830B3FFE7049800880D
:1039800008B3FFE70698B0F8D202E0B1FFE7049869
:1039900000880699B1F8D212884204DAFFE7049849
:1039A0000088009004E00698B0F8D2020090FFE78B
:1039B0000098ADF81400069804994968BDF81420E1
:1039C000FFF754FBFFE7FFE79DF817008DF81F0096
:1039D000FFE79DF81F0008B080BD000083B0029093
:1039E0008DF80710029A9DF8070000F07F002C2147
:1039F00010FB012000F5B67000900098C06903B07C
:103A00007047000080B582B0019000208DF803005F
:103A1000019890F8E4020238012814D8FFE70198D1
:103A200090F8E70240B1FFE70199D1F8EC0240F0CD
:103A30000200C1F8EC02FFE7019800F53B71022299
:103A4000FFF714FB03E00198FFF73EFBFFE79DF84B
:103A5000030002B080BD000080B582B001900198E3
:103A60004068006A30B1FFE7019841680A6A0521A1
:103A70009047FFE702B080BD80B582B00190019809
:103A80004068006A30B1FFE7019841680A6A062180
:103A90009047FFE702B080BD80B586B005900598DD
:103AA00000680490002003900498FEF799FD0190AF
:103AB000FFE70198002867D0FFE79DF80400C007E2
:103AC00000285AD0FFE704980399FEF7BFFB029045
:103AD0009DF80800C007A0B1FFE70398012202FA91
:103AE00000F30499D1F834089843C1F834080498D5
:103AF0000399FEF79DFB05989DF80C10FFF76EF8F3
:103B0000FFE79DF808000007002806D5FFE70498A6
:103B100003990822FEF78CFBFFE79DF80800C0061A
:103B2000002806D5FFE7049803991022FEF780FBD2
:103B3000FFE79DF808004006002806D5FFE7049837
:103B400003994022FEF774FBFFE79DF80800800709
:103B5000002806D5FFE7049803990222FEF768FBC8
:103B6000FFE79DF808000006002805D5FFE7059847
:103B70000399FEF721FFFFE7FFE703980130039069
:103B800001984008019094E706B080BD80B586B0EA
:103B9000DDF820C005908DF813108DF812200393E6
:103BA00000208DF80B009DF81200FEF7A7FD059987
:103BB000086005989DF81310FEF7CAF9059890F86B
:103BC000FF0238B1FFE705980168886B40F4801068
:103BD0008863FFE7059890F8010338B1FFE705987F
:103BE0000168886B40F400108863FFE7059850F87F
:103BF000041B039A089B9DF813C0EE46CEF800C044
:103C0000FFF77CF89DF80B0006B080BD83B00290F2
:103C100001918DF8032000208DF802008DF802003C
:103C2000FFE79DF802009DF80310884229DAFFE7BC
:103C30000298000F092809D8FFE70298000F3030DA
:103C400001999DF8022001F8120009E0029937203D
:103C500000EB117001999DF8022001F81200FFE7B6
:103C600002980001029001989DF8021000EB4101BA
:103C700000204870FFE79DF8020001308DF8020037
:103C8000CFE703B07047000080B584B003900020F8
:103C90008DF80B00039800F533700190039890F8AD
:103CA000E40203280FD1FFE7039841688A6800F512
:103CB000337190470198C08820B9FFE70398FFF758
:103CC000F3F9FFE703E00398FFF7FEF9FFE79DF83C
:103CD0000B0004B080BD000080B584B00390039851
:103CE000006802900398043001900298FEF79CFC53
:103CF000009002984069C007002840F09380FFE7D9
:103D00009DF800008007002805D5FFE702980221F2
:103D1000FEF782FCFFE79DF802004007002804D56B
:103D2000FFE70198FFF7B8FEFFE79DF802000007E4
:103D3000002804D5FFE7019800F076F8FFE79DF82A
:103D40000100C006002809D5FFE7019800F0D8F867
:103D500002984FF48051FEF75FFCFFE79DF80000EA
:103D60000007002808D5FFE7019800F0DBFA029869
:103D70000821FEF751FCFFE79DF8010080060028AE
:103D800009D5FFE70198FFF719FB02984FF400519E
:103D9000FEF742FCFFE79DF80000C006002804D5AE
:103DA000FFE7019800F01CF9FFE79DF80200C0064C
:103DB000002809D5FFE70198FFF74EFE02984FF45F
:103DC0008011FEF729FCFFE79DF80200800600281D
:103DD00009D5FFE70198FFF74FFE02984FF4001155
:103DE000FEF71AFCFFE79DF803000006002809D53E
:103DF000FFE7019800F008FB02984FF00041FEF742
:103E00000BFCFFE79DF801000007002809D5FFE73C
:103E1000019800F097FA02984FF40061FEF7FCFB5E
:103E2000FFE7FFE704B080BD80B586B00590059838
:103E300000680490002003900498FEF7DFFB0190D7
:103E4000FFE70198002858D0FFE79DF80400C0075D
:103E500000284BD0FFE704980399FEF715FB02906A
:103E60009DF80800C00758B1FFE7049803990122A4
:103E7000FEF7FCFA05989DF80C10FFF727F8FFE70E
:103E80009DF808000007002823D5FFE70498039950
:103E90000822FEF7EBFA05989DF80C10FFF780F862
:103EA000059890F8E60298B1FFE7059890F8E622A9
:103EB0000168D1F8000802F07F0220F4FE6040EAB9
:103EC0000210C1F800080599002081F8E602FFE71A
:103ED000FFE79DF80800C006002806D5FFE7049814
:103EE00003991022FEF7C2FAFFE7FFE703980130BB
:103EF0000390019840080190A3E706B080BD000040
:103F000080B586B00590059800680490049800F587
:103F1000006003900020019002900399486820F00F
:103F2000010048600598FFF733FC04981021FEF764
:103F30002DFB01980290FFE70298072812D8FFE7AF
:103F40000498029900EB4111FF20C1F80809049977
:103F5000029A01EB4211C1F8080BFFE70298013009
:103F60000290E9E703994FF0FF30886103994FF021
:103F70000110C8610399486940F001004861039944
:103F8000486940F0020048610399486940F0080020
:103F900048610399086940F00100086103990869C4
:103FA00040F0020008610399086940F008000861C8
:103FB00004980021FEF780FC0498FEF71DF805998F
:103FC000012081F8E40205984068006A30B1FFE7FB
:103FD000059841680A6A01219047FFE706B080BD55
:103FE00080B586B00590059800680490049810216B
:103FF0000022FEF733FB0498006A03900398C0F395
:104000000A1002900398C0F343400190059A039868
:1040100000F00F002C2110FB012000F5B67000907D
:104020000198022819D1FFE70298A8B1FFE7049888
:1040300000994969039A02F00F02BDF80830FEF7B3
:1040400015FC029A0099486910444861029A009947
:10405000C8691044C861FFE715E00198062811D12E
:10406000FFE70498059901F53571039A02F00F02F4
:10407000BDF80830FEF7FAFB029A0099C8691044AF
:10408000C861FFE7FFE7049810210122FEF7E6FA76
:1040900006B080BD80B584B0039000208DF80B0081
:1040A000039800F5337001900198808860BBFFE7AA
:1040B0000198C08840BBFFE70198807800F07F003E
:1040C0008DF80300039890F8E402032804D1FFE779
:1040D0000398FEF7F9FF16E09DF80300039981F8B5
:1040E000E6029DF8030028B1FFE70399022081F85A
:1040F000E40204E00399012081F8E402FFE7039859
:10410000FEF7D2FFFFE703E00398FEF7DDFFFFE7CE
:104110009DF80B0004B080BD80B584B003900020F2
:104120008DF80B00039800F53370019001988078AA
:1041300040F2FC61C2F200010870019880880028FA
:1041400076D1FFE70198C088002871D1FFE7039876
:1041500090F8E40201460091022804D0FFE700989D
:10416000032820D05FE040F2FC60C2F2000000783B
:10417000A0B1FFE740F2FC60C2F2000000780399B2
:1041800081F8E9020399032081F8E4020398416869
:10419000096888470398FEF787FF03E00398FEF756
:1041A00083FFFFE743E040F2FC60C2F200000078CA
:1041B000A0B9FFE70399022081F8E40240F2FC6015
:1041C000C2F200000078039981F8E902039841687F
:1041D000496888470398FEF767FF23E040F2FC60D8
:1041E000C2F200000078039991F8E912884214D1D4
:1041F000FFE7039841684968884740F2FC60C2F2D3
:1042000000000078039981F8E90203984168096881
:1042100088470398FEF748FF03E00398FEF744FF42
:10422000FFE7FFE703E00398FEF74EFFFFE703E039
:104230000398FEF749FFFFE79DF80B0004B080BD2F
:1042400080B584B0039000208DF80B00039800F532
:10425000337001900198408801280ED1FFE703993F
:10426000012081F8E702039841688A6800F53371FC
:1042700090470398FEF718FFFFE79DF80B0004B086
:1042800080BD000080B584B003908DF80B100398BA
:10429000006800909DF80B00000600280BD5FFE792
:1042A000039A9DF80B0000F07F002C2110FB0120E9
:1042B0000C3001900BE0039A9DF80B0000F07F009A
:1042C0002C2110FB012000F5B6700190FFE700984B
:1042D0000199FEF7EBF801990120487304B080BD05
:1042E00082B00190009100980078019908700098C0
:1042F00040780199487000998878C97840EA01208F
:104300000199488000990879497940EA012001998A
:10431000888000998879C97940EA01200199C8808C
:1043200002B0704780B582B0019001984068C069C2
:1043300028B1FFE701984168C9698847FFE702B0E3
:1043400080BD000080B582B00190019800680090A7
:104350000098D0F80808C007C0B1FFE7019991F8AC
:10436000E40281F8E5020199042081F8E402019851
:10437000FFF712F801984068006A30B1FFE7019832
:1043800041680A6A02219047FFE7FFE702B080BD5B
:1043900084B0039002910020ADF806000220ADF831
:1043A000040003980090FFE700980078C8B1FFE789
:1043B000BDF806000130ADF806000098411C0091E0
:1043C00000780299BDF80420531CADF804308854DD
:1043D0000299BDF80420501CADF804000020885458
:1043E000E2E7BDF80610022000EB4100ADF8060040
:1043F0009DF8060002990870029903204870BDF8E4
:10440000060004B07047000080B582B001900198AA
:10441000006800900099D1F8040820F00100C1F86C
:10442000040801980068FEF715FA019991F8E50271
:1044300081F8E40201984068006A30B1FFE7019812
:1044400041680A6A03219047FFE702B080BD3F063A
:104450005B4F666D7D077F6F0041473632302D44DC
:1044600049474954414C0044656570436F6F6C2067
:1044700048494420496E746572666163650044650D
:104480006570436F6F6C2048494420436F6E6669C6
:10449000670044656570436F6F6C000000000000AA
:1044A000000000010203040607080900D0440008C8
:1044B00000000020680100000C010008D045000841
:1044C00068010020A00B0000680100080000000047
:1044D0003229229014205D0A140881091B08F5086E
:1044E0001AF5081AA9041A450C1AA90413750C1B0D
:1044F00008090813D0011420F11314089D141B0897
:10450000E5081A69081A2D041A39041A6D041AA14B
:10451000041AFD181AB50423580232121A3C341535
:10452000092110014401227E071A040309041A0319
:104530001409022913010125E0FA09042A02297944
:104540003E1607058103402D0A07050107311306B2
:10455000FF100A0901A10185020902152809250198
:104560007508953FB1820E9F918285030903141946
:104570000E19149C04090414190E19143C0509059C
:1045800014101901818209057501B18275078183B3
:1045900085057507B183851009061512262AFF3196
:1045A0001B91020F7A070F1C8182C0E0120119E6ED
:1045B000111D40333608AC1D01020301E0312270A9
:1045C00033201A1A740833881313127A000000007B
:04000005080000D11E
:00000001FF
